{
  "_format": "hh-sol-artifact-1",
  "contractName": "Cryfteria",
  "sourceName": "contracts/Cryfteria.sol",
  "abi": [
    {
      "anonymous": false,
      "inputs": [
        {
          "indexed": true,
          "internalType": "address",
          "name": "_owner",
          "type": "address"
        },
        {
          "indexed": true,
          "internalType": "address",
          "name": "_approved",
          "type": "address"
        },
        {
          "indexed": true,
          "internalType": "uint256",
          "name": "_tokenId",
          "type": "uint256"
        }
      ],
      "name": "Approval",
      "type": "event"
    },
    {
      "anonymous": false,
      "inputs": [
        {
          "indexed": false,
          "internalType": "uint256",
          "name": "postId",
          "type": "uint256"
        },
        {
          "indexed": false,
          "internalType": "address",
          "name": "owner",
          "type": "address"
        }
      ],
      "name": "NewPost",
      "type": "event"
    },
    {
      "anonymous": false,
      "inputs": [
        {
          "indexed": true,
          "internalType": "address",
          "name": "oldOwner",
          "type": "address"
        },
        {
          "indexed": true,
          "internalType": "address",
          "name": "newOwner",
          "type": "address"
        }
      ],
      "name": "OwnerSet",
      "type": "event"
    },
    {
      "anonymous": false,
      "inputs": [
        {
          "indexed": true,
          "internalType": "address",
          "name": "_from",
          "type": "address"
        },
        {
          "indexed": true,
          "internalType": "address",
          "name": "_to",
          "type": "address"
        },
        {
          "indexed": true,
          "internalType": "uint256",
          "name": "_tokenId",
          "type": "uint256"
        }
      ],
      "name": "Transfer",
      "type": "event"
    },
    {
      "stateMutability": "payable",
      "type": "fallback"
    },
    {
      "inputs": [
        {
          "internalType": "address",
          "name": "_approved",
          "type": "address"
        },
        {
          "internalType": "uint256",
          "name": "_tokenId",
          "type": "uint256"
        }
      ],
      "name": "approve",
      "outputs": [],
      "stateMutability": "payable",
      "type": "function"
    },
    {
      "inputs": [
        {
          "internalType": "address",
          "name": "_owner",
          "type": "address"
        }
      ],
      "name": "balanceOf",
      "outputs": [
        {
          "internalType": "uint256",
          "name": "",
          "type": "uint256"
        }
      ],
      "stateMutability": "view",
      "type": "function"
    },
    {
      "inputs": [
        {
          "internalType": "uint256",
          "name": "_tokenId",
          "type": "uint256"
        }
      ],
      "name": "buyPost",
      "outputs": [],
      "stateMutability": "payable",
      "type": "function"
    },
    {
      "inputs": [
        {
          "internalType": "uint256",
          "name": "_minDonate",
          "type": "uint256"
        }
      ],
      "name": "changeMinDonate",
      "outputs": [],
      "stateMutability": "nonpayable",
      "type": "function"
    },
    {
      "inputs": [
        {
          "internalType": "address",
          "name": "newOwner",
          "type": "address"
        }
      ],
      "name": "changeOwner",
      "outputs": [],
      "stateMutability": "nonpayable",
      "type": "function"
    },
    {
      "inputs": [],
      "name": "contractBalance",
      "outputs": [
        {
          "internalType": "uint256",
          "name": "",
          "type": "uint256"
        }
      ],
      "stateMutability": "view",
      "type": "function"
    },
    {
      "inputs": [
        {
          "internalType": "uint256",
          "name": "_hashKey",
          "type": "uint256"
        }
      ],
      "name": "createPost",
      "outputs": [],
      "stateMutability": "nonpayable",
      "type": "function"
    },
    {
      "inputs": [
        {
          "internalType": "uint256",
          "name": "_postId",
          "type": "uint256"
        }
      ],
      "name": "donate",
      "outputs": [],
      "stateMutability": "payable",
      "type": "function"
    },
    {
      "inputs": [],
      "name": "getOwner",
      "outputs": [
        {
          "internalType": "address",
          "name": "",
          "type": "address"
        }
      ],
      "stateMutability": "view",
      "type": "function"
    },
    {
      "inputs": [
        {
          "internalType": "uint256",
          "name": "id",
          "type": "uint256"
        }
      ],
      "name": "getPostById",
      "outputs": [
        {
          "components": [
            {
              "internalType": "uint256",
              "name": "hashKey",
              "type": "uint256"
            },
            {
              "internalType": "uint256",
              "name": "donated",
              "type": "uint256"
            },
            {
              "internalType": "uint256",
              "name": "id",
              "type": "uint256"
            },
            {
              "internalType": "address",
              "name": "owner",
              "type": "address"
            },
            {
              "internalType": "uint256",
              "name": "price",
              "type": "uint256"
            }
          ],
          "internalType": "struct Cryfteria.PostDto",
          "name": "",
          "type": "tuple"
        }
      ],
      "stateMutability": "view",
      "type": "function"
    },
    {
      "inputs": [
        {
          "internalType": "address",
          "name": "_owner",
          "type": "address"
        }
      ],
      "name": "getPostCountByOwner",
      "outputs": [
        {
          "internalType": "uint256",
          "name": "",
          "type": "uint256"
        }
      ],
      "stateMutability": "view",
      "type": "function"
    },
    {
      "inputs": [
        {
          "internalType": "address",
          "name": "_owner",
          "type": "address"
        }
      ],
      "name": "getPostsByOwner",
      "outputs": [
        {
          "components": [
            {
              "internalType": "uint256",
              "name": "hashKey",
              "type": "uint256"
            },
            {
              "internalType": "uint256",
              "name": "donated",
              "type": "uint256"
            },
            {
              "internalType": "uint256",
              "name": "id",
              "type": "uint256"
            },
            {
              "internalType": "address",
              "name": "owner",
              "type": "address"
            },
            {
              "internalType": "uint256",
              "name": "price",
              "type": "uint256"
            }
          ],
          "internalType": "struct Cryfteria.PostDto[]",
          "name": "",
          "type": "tuple[]"
        }
      ],
      "stateMutability": "view",
      "type": "function"
    },
    {
      "inputs": [
        {
          "internalType": "uint256",
          "name": "n",
          "type": "uint256"
        }
      ],
      "name": "getTopDonatedPosts",
      "outputs": [
        {
          "components": [
            {
              "internalType": "uint256",
              "name": "hashKey",
              "type": "uint256"
            },
            {
              "internalType": "uint256",
              "name": "donated",
              "type": "uint256"
            },
            {
              "internalType": "uint256",
              "name": "id",
              "type": "uint256"
            },
            {
              "internalType": "address",
              "name": "owner",
              "type": "address"
            },
            {
              "internalType": "uint256",
              "name": "price",
              "type": "uint256"
            }
          ],
          "internalType": "struct Cryfteria.PostDto[]",
          "name": "",
          "type": "tuple[]"
        }
      ],
      "stateMutability": "view",
      "type": "function"
    },
    {
      "inputs": [
        {
          "internalType": "uint256",
          "name": "_tokenId",
          "type": "uint256"
        }
      ],
      "name": "ownerOf",
      "outputs": [
        {
          "internalType": "address",
          "name": "",
          "type": "address"
        }
      ],
      "stateMutability": "view",
      "type": "function"
    },
    {
      "inputs": [
        {
          "internalType": "uint256",
          "name": "",
          "type": "uint256"
        }
      ],
      "name": "postToOwner",
      "outputs": [
        {
          "internalType": "address",
          "name": "",
          "type": "address"
        }
      ],
      "stateMutability": "view",
      "type": "function"
    },
    {
      "inputs": [
        {
          "internalType": "uint256",
          "name": "",
          "type": "uint256"
        }
      ],
      "name": "postToPrice",
      "outputs": [
        {
          "internalType": "uint256",
          "name": "",
          "type": "uint256"
        }
      ],
      "stateMutability": "view",
      "type": "function"
    },
    {
      "inputs": [
        {
          "internalType": "uint256",
          "name": "",
          "type": "uint256"
        }
      ],
      "name": "posts",
      "outputs": [
        {
          "internalType": "uint256",
          "name": "hashKey",
          "type": "uint256"
        },
        {
          "internalType": "uint256",
          "name": "donated",
          "type": "uint256"
        }
      ],
      "stateMutability": "view",
      "type": "function"
    },
    {
      "inputs": [
        {
          "internalType": "uint256",
          "name": "_tokenId",
          "type": "uint256"
        },
        {
          "internalType": "uint256",
          "name": "price",
          "type": "uint256"
        }
      ],
      "name": "setPostForSell",
      "outputs": [],
      "stateMutability": "nonpayable",
      "type": "function"
    },
    {
      "inputs": [
        {
          "internalType": "address",
          "name": "_from",
          "type": "address"
        },
        {
          "internalType": "address",
          "name": "_to",
          "type": "address"
        },
        {
          "internalType": "uint256",
          "name": "_tokenId",
          "type": "uint256"
        }
      ],
      "name": "transferFrom",
      "outputs": [],
      "stateMutability": "payable",
      "type": "function"
    },
    {
      "inputs": [],
      "name": "withdraw",
      "outputs": [],
      "stateMutability": "nonpayable",
      "type": "function"
    },
    {
      "stateMutability": "payable",
      "type": "receive"
    }
  ],
  "bytecode": "0x608060405266038d7ea4c6800060025534801561001b57600080fd5b50336000806101000a81548173ffffffffffffffffffffffffffffffffffffffff021916908373ffffffffffffffffffffffffffffffffffffffff16021790555060008054906101000a900473ffffffffffffffffffffffffffffffffffffffff1673ffffffffffffffffffffffffffffffffffffffff16600073ffffffffffffffffffffffffffffffffffffffff167f342827c97908e5e2f71151c08502a66d44b6f758e3ac2f1de95f02eb95f0a73560405160405180910390a3611ed7806100e66000396000f3fe6080604052600436106101235760003560e01c8063893d20e8116100a0578063a91e6d7d11610064578063a91e6d7d146103d7578063a9d2b32a14610414578063cbe8ad2114610451578063ee0b34951461048e578063f14faf6f146104b75761012a565b8063893d20e8146102f25780638b7afe2e1461031d5780639a9a4a95146103485780639b4a262d14610371578063a6f9dae1146103ae5761012a565b80632fa67338116100e75780632fa67338146102085780633ccfd60b146102245780636352211e1461023b57806364e958951461027857806370a08231146102b55761012a565b8063095ea7b31461012c5780630b1e7f83146101485780631c3f154f146101865780631d69bd48146101c357806323b872dd146101ec5761012a565b3661012a57005b005b610146600480360381019061014191906118dd565b6104d3565b005b34801561015457600080fd5b5061016f600480360381019061016a9190611919565b6105ef565b60405161017d929190611bdf565b60405180910390f35b34801561019257600080fd5b506101ad60048036038101906101a89190611865565b610623565b6040516101ba9190611b9b565b60405180910390f35b3480156101cf57600080fd5b506101ea60048036038101906101e59190611919565b6106cd565b005b6102066004803603810190610201919061188e565b6107c8565b005b610222600480360381019061021d9190611919565b6108ac565b005b34801561023057600080fd5b506102396109a9565b005b34801561024757600080fd5b50610262600480360381019061025d9190611919565b610a8d565b60405161026f9190611b23565b60405180910390f35b34801561028457600080fd5b5061029f600480360381019061029a9190611919565b610aca565b6040516102ac9190611b80565b60405180910390f35b3480156102c157600080fd5b506102dc60048036038101906102d79190611865565b610bd0565b6040516102e99190611b9b565b60405180910390f35b3480156102fe57600080fd5b50610307610be2565b6040516103149190611b23565b60405180910390f35b34801561032957600080fd5b50610332610c0b565b60405161033f9190611b9b565b60405180910390f35b34801561035457600080fd5b5061036f600480360381019061036a9190611942565b610c13565b005b34801561037d57600080fd5b5061039860048036038101906103939190611919565b610ca6565b6040516103a59190611b9b565b60405180910390f35b3480156103ba57600080fd5b506103d560048036038101906103d09190611865565b610cbe565b005b3480156103e357600080fd5b506103fe60048036038101906103f99190611865565b610e09565b60405161040b9190611b3e565b60405180910390f35b34801561042057600080fd5b5061043b60048036038101906104369190611919565b611071565b6040516104489190611b3e565b60405180910390f35b34801561045d57600080fd5b5061047860048036038101906104739190611919565b61156b565b6040516104859190611b23565b60405180910390f35b34801561049a57600080fd5b506104b560048036038101906104b09190611919565b61159e565b005b6104d160048036038101906104cc9190611919565b611636565b005b6005600082815260200190815260200160002060009054906101000a900473ffffffffffffffffffffffffffffffffffffffff1673ffffffffffffffffffffffffffffffffffffffff163373ffffffffffffffffffffffffffffffffffffffff161461053e57600080fd5b816005600083815260200190815260200160002060006101000a81548173ffffffffffffffffffffffffffffffffffffffff021916908373ffffffffffffffffffffffffffffffffffffffff160217905550808273ffffffffffffffffffffffffffffffffffffffff163373ffffffffffffffffffffffffffffffffffffffff167f8c5be1e5ebec7d5bd14f71427d1e84f3dd0314c0f7b2291e5b200ac8c7c3b92560405160405180910390a45050565b600181815481106105ff57600080fd5b90600052602060002090600202016000915090508060000154908060010154905082565b6000806000905060005b6001805490508110156106c3578373ffffffffffffffffffffffffffffffffffffffff166003600083815260200190815260200160002060009054906101000a900473ffffffffffffffffffffffffffffffffffffffff1673ffffffffffffffffffffffffffffffffffffffff1614156106b05781806106ac90611da3565b9250505b80806106bb90611da3565b91505061062d565b5080915050919050565b6001604051806040016040528083815260200160008152509080600181540180825580915050600190039060005260206000209060020201600090919091909150600082015181600001556020820151816001015550506000600180805490506107379190611d33565b9050336003600083815260200190815260200160002060006101000a81548173ffffffffffffffffffffffffffffffffffffffff021916908373ffffffffffffffffffffffffffffffffffffffff1602179055507f9fa1d45302bd9fcb3284255e19bfd6b44a866ae45a18606aec53c1b7d7bdc0ac81336040516107bc929190611bb6565b60405180910390a15050565b3373ffffffffffffffffffffffffffffffffffffffff166003600083815260200190815260200160002060009054906101000a900473ffffffffffffffffffffffffffffffffffffffff1673ffffffffffffffffffffffffffffffffffffffff16148061089357503373ffffffffffffffffffffffffffffffffffffffff166005600083815260200190815260200160002060009054906101000a900473ffffffffffffffffffffffffffffffffffffffff1673ffffffffffffffffffffffffffffffffffffffff16145b61089c57600080fd5b6108a7838383611744565b505050565b600060046000838152602001908152602001600020541180156108e15750600460008281526020019081526020016000205434145b6108ea57600080fd5b60006003600083815260200190815260200160002060009054906101000a900473ffffffffffffffffffffffffffffffffffffffff1690506004600083815260200190815260200160002060009055610944813384611744565b8073ffffffffffffffffffffffffffffffffffffffff166108fc6103e86103843461096f9190611cd9565b6109799190611ca8565b9081150290604051600060405180830381858888f193505050501580156109a4573d6000803e3d6000fd5b505050565b60008054906101000a900473ffffffffffffffffffffffffffffffffffffffff1673ffffffffffffffffffffffffffffffffffffffff163373ffffffffffffffffffffffffffffffffffffffff1614610a37576040517f08c379a0000000000000000000000000000000000000000000000000000000008152600401610a2e90611b60565b60405180910390fd5b6000610a41610be2565b90508073ffffffffffffffffffffffffffffffffffffffff166108fc479081150290604051600060405180830381858888f19350505050158015610a89573d6000803e3d6000fd5b5050565b60006003600083815260200190815260200160002060009054906101000a900473ffffffffffffffffffffffffffffffffffffffff169050919050565b610ad26117f6565b600060018381548110610b0e577f4e487b7100000000000000000000000000000000000000000000000000000000600052603260045260246000fd5b90600052602060002090600202016040518060400160405290816000820154815260200160018201548152505090506040518060a0016040528082600001518152602001826020015181526020018481526020016003600086815260200190815260200160002060009054906101000a900473ffffffffffffffffffffffffffffffffffffffff1673ffffffffffffffffffffffffffffffffffffffff1681526020016004600086815260200190815260200160002054815250915050919050565b6000610bdb82610623565b9050919050565b60008060009054906101000a900473ffffffffffffffffffffffffffffffffffffffff16905090565b600047905090565b3373ffffffffffffffffffffffffffffffffffffffff166003600084815260200190815260200160002060009054906101000a900473ffffffffffffffffffffffffffffffffffffffff1673ffffffffffffffffffffffffffffffffffffffff16148015610c815750600081115b610c8a57600080fd5b8060046000848152602001908152602001600020819055505050565b60046020528060005260406000206000915090505481565b60008054906101000a900473ffffffffffffffffffffffffffffffffffffffff1673ffffffffffffffffffffffffffffffffffffffff163373ffffffffffffffffffffffffffffffffffffffff1614610d4c576040517f08c379a0000000000000000000000000000000000000000000000000000000008152600401610d4390611b60565b60405180910390fd5b8073ffffffffffffffffffffffffffffffffffffffff1660008054906101000a900473ffffffffffffffffffffffffffffffffffffffff1673ffffffffffffffffffffffffffffffffffffffff167f342827c97908e5e2f71151c08502a66d44b6f758e3ac2f1de95f02eb95f0a73560405160405180910390a3806000806101000a81548173ffffffffffffffffffffffffffffffffffffffff021916908373ffffffffffffffffffffffffffffffffffffffff16021790555050565b60606000610e1683610623565b67ffffffffffffffff811115610e55577f4e487b7100000000000000000000000000000000000000000000000000000000600052604160045260246000fd5b604051908082528060200260200182016040528015610e8e57816020015b610e7b6117f6565b815260200190600190039081610e735790505b5090506000805b600180549050811015611066578473ffffffffffffffffffffffffffffffffffffffff166003600083815260200190815260200160002060009054906101000a900473ffffffffffffffffffffffffffffffffffffffff1673ffffffffffffffffffffffffffffffffffffffff16141561105357600060018281548110610f45577f4e487b7100000000000000000000000000000000000000000000000000000000600052603260045260246000fd5b90600052602060002090600202016040518060400160405290816000820154815260200160018201548152505090506040518060a0016040528082600001518152602001826020015181526020018381526020016003600085815260200190815260200160002060009054906101000a900473ffffffffffffffffffffffffffffffffffffffff1673ffffffffffffffffffffffffffffffffffffffff1681526020016004600085815260200190815260200160002054815250848481518110611038577f4e487b7100000000000000000000000000000000000000000000000000000000600052603260045260246000fd5b6020026020010181905250828061104e90611da3565b935050505b808061105e90611da3565b915050610e95565b508192505050919050565b60606000826001805490501161108e576001805490509050611092565b8290505b60008167ffffffffffffffff8111156110d4577f4e487b7100000000000000000000000000000000000000000000000000000000600052604160045260246000fd5b60405190808252806020026020018201604052801561110d57816020015b6110fa6117f6565b8152602001906001900390816110f25790505b50905060005b8281101561128b576040518060a0016040528060018381548110611160577f4e487b7100000000000000000000000000000000000000000000000000000000600052603260045260246000fd5b9060005260206000209060020201600001548152602001600183815481106111b1577f4e487b7100000000000000000000000000000000000000000000000000000000600052603260045260246000fd5b90600052602060002090600202016001015481526020018281526020016003600084815260200190815260200160002060009054906101000a900473ffffffffffffffffffffffffffffffffffffffff1673ffffffffffffffffffffffffffffffffffffffff168152602001600460008481526020019081526020016000205481525082828151811061126d577f4e487b7100000000000000000000000000000000000000000000000000000000600052603260045260246000fd5b6020026020010181905250808061128390611da3565b915050611113565b5060008290505b60018054905081101561156057600080600190505b84811015611356578382815181106112e8577f4e487b7100000000000000000000000000000000000000000000000000000000600052603260045260246000fd5b60200260200101516020015184828151811061132d577f4e487b7100000000000000000000000000000000000000000000000000000000600052603260045260246000fd5b6020026020010151602001511015611343578091505b808061134e90611da3565b9150506112a7565b50828181518110611390577f4e487b7100000000000000000000000000000000000000000000000000000000600052603260045260246000fd5b602002602001015160200151600183815481106113d6577f4e487b7100000000000000000000000000000000000000000000000000000000600052603260045260246000fd5b906000526020600020906002020160010154111561154c576040518060a0016040528060018481548110611433577f4e487b7100000000000000000000000000000000000000000000000000000000600052603260045260246000fd5b906000526020600020906002020160000154815260200160018481548110611484577f4e487b7100000000000000000000000000000000000000000000000000000000600052603260045260246000fd5b90600052602060002090600202016001015481526020018381526020016003600085815260200190815260200160002060009054906101000a900473ffffffffffffffffffffffffffffffffffffffff1673ffffffffffffffffffffffffffffffffffffffff1681526020016004600085815260200190815260200160002054815250838281518110611540577f4e487b7100000000000000000000000000000000000000000000000000000000600052603260045260246000fd5b60200260200101819052505b50808061155890611da3565b915050611292565b508092505050919050565b60036020528060005260406000206000915054906101000a900473ffffffffffffffffffffffffffffffffffffffff1681565b60008054906101000a900473ffffffffffffffffffffffffffffffffffffffff1673ffffffffffffffffffffffffffffffffffffffff163373ffffffffffffffffffffffffffffffffffffffff161461162c576040517f08c379a000000000000000000000000000000000000000000000000000000000815260040161162390611b60565b60405180910390fd5b8060028190555050565b60025434101561164557600080fd5b60006003600083815260200190815260200160002060009054906101000a900473ffffffffffffffffffffffffffffffffffffffff1690508073ffffffffffffffffffffffffffffffffffffffff166108fc6103e86102bc346116a89190611cd9565b6116b29190611ca8565b9081150290604051600060405180830381858888f193505050501580156116dd573d6000803e3d6000fd5b503460018381548110611719577f4e487b7100000000000000000000000000000000000000000000000000000000600052603260045260246000fd5b906000526020600020906002020160010160008282546117399190611c52565b925050819055505050565b816003600083815260200190815260200160002060006101000a81548173ffffffffffffffffffffffffffffffffffffffff021916908373ffffffffffffffffffffffffffffffffffffffff160217905550808273ffffffffffffffffffffffffffffffffffffffff168473ffffffffffffffffffffffffffffffffffffffff167fddf252ad1be2c89b69c2b068fc378daa952ba7f163c4a11628f55a4df523b3ef60405160405180910390a4505050565b6040518060a00160405280600081526020016000815260200160008152602001600073ffffffffffffffffffffffffffffffffffffffff168152602001600081525090565b60008135905061184a81611e73565b92915050565b60008135905061185f81611e8a565b92915050565b60006020828403121561187757600080fd5b60006118858482850161183b565b91505092915050565b6000806000606084860312156118a357600080fd5b60006118b18682870161183b565b93505060206118c28682870161183b565b92505060406118d386828701611850565b9150509250925092565b600080604083850312156118f057600080fd5b60006118fe8582860161183b565b925050602061190f85828601611850565b9150509250929050565b60006020828403121561192b57600080fd5b600061193984828501611850565b91505092915050565b6000806040838503121561195557600080fd5b600061196385828601611850565b925050602061197485828601611850565b9150509250929050565b600061198a8383611a35565b60a08301905092915050565b61199f81611d67565b82525050565b6119ae81611d67565b82525050565b60006119bf82611c18565b6119c98185611c30565b93506119d483611c08565b8060005b83811015611a055781516119ec888261197e565b97506119f783611c23565b9250506001810190506119d8565b5085935050505092915050565b6000611a1f601383611c41565b9150611a2a82611e4a565b602082019050919050565b60a082016000820151611a4b6000850182611b05565b506020820151611a5e6020850182611b05565b506040820151611a716040850182611b05565b506060820151611a846060850182611996565b506080820151611a976080850182611b05565b50505050565b60a082016000820151611ab36000850182611b05565b506020820151611ac66020850182611b05565b506040820151611ad96040850182611b05565b506060820151611aec6060850182611996565b506080820151611aff6080850182611b05565b50505050565b611b0e81611d99565b82525050565b611b1d81611d99565b82525050565b6000602082019050611b3860008301846119a5565b92915050565b60006020820190508181036000830152611b5881846119b4565b905092915050565b60006020820190508181036000830152611b7981611a12565b9050919050565b600060a082019050611b956000830184611a9d565b92915050565b6000602082019050611bb06000830184611b14565b92915050565b6000604082019050611bcb6000830185611b14565b611bd860208301846119a5565b9392505050565b6000604082019050611bf46000830185611b14565b611c016020830184611b14565b9392505050565b6000819050602082019050919050565b600081519050919050565b6000602082019050919050565b600082825260208201905092915050565b600082825260208201905092915050565b6000611c5d82611d99565b9150611c6883611d99565b9250827fffffffffffffffffffffffffffffffffffffffffffffffffffffffffffffffff03821115611c9d57611c9c611dec565b5b828201905092915050565b6000611cb382611d99565b9150611cbe83611d99565b925082611cce57611ccd611e1b565b5b828204905092915050565b6000611ce482611d99565b9150611cef83611d99565b9250817fffffffffffffffffffffffffffffffffffffffffffffffffffffffffffffffff0483118215151615611d2857611d27611dec565b5b828202905092915050565b6000611d3e82611d99565b9150611d4983611d99565b925082821015611d5c57611d5b611dec565b5b828203905092915050565b6000611d7282611d79565b9050919050565b600073ffffffffffffffffffffffffffffffffffffffff82169050919050565b6000819050919050565b6000611dae82611d99565b91507fffffffffffffffffffffffffffffffffffffffffffffffffffffffffffffffff821415611de157611de0611dec565b5b600182019050919050565b7f4e487b7100000000000000000000000000000000000000000000000000000000600052601160045260246000fd5b7f4e487b7100000000000000000000000000000000000000000000000000000000600052601260045260246000fd5b7f43616c6c6572206973206e6f74206f776e657200000000000000000000000000600082015250565b611e7c81611d67565b8114611e8757600080fd5b50565b611e9381611d99565b8114611e9e57600080fd5b5056fea2646970667358221220e93c7c83427fddfb9e6a3edefe912feb7fd9bd74c29bd8b79738c580aa520c2764736f6c63430008020033",
  "linkReferences": {},
  "deployedLinkReferences": {}
}